:100000000C9446000C9450000C9450000C9450003A
:100010000C9450000C9450000C9450000C94500020
:100020000C9450000C9450000C9450000C94500010
:100030000C9450000C9450000C9450000C94500000
:100040000C9450000C9450000C9450000C945000F0
:100050000C9450000C9450000C9450000C945000E0
:100060000C9450000C9450000C9450000C945000D0
:100070000C9450000C9450000C9450000C945000C0
:100080000C9450000C9450000C94500011241FBE8E
:10009000CFEFD0E1DEBFCDBF0E9452000C946800CC
:1000A0000C940000D09AD89A2FE986E891E021506C
:1000B00080409040E1F700C00000D8982FE986E822
:1000C00091E0215080409040E1F700C00000EBCF6C
:0400D000F894FFCFD2
:00000001FF
