:10000000C6C00000E2C00000E0C00000DEC000008A
:10001000DCC00000DAC00000D8C00000D6C000007C
:10002000D4C00000D2C00000D0C00000CEC000008C
:10003000CCC00000CAC00000C8C00000C6C000009C
:10004000C4C00000C2C00000C0C00000BEC00000AC
:10005000BCC00000BAC00000B8C00000B6C00000BC
:10006000B4C00000B2C00000B0C00000AEC00000CC
:10007000ACC00000AAC00000A8C00000A6C00000DC
:10008000A4C00000A2C00000A0C000006E616E000D
:10009000696E660000407A10F35A00A0724E18098B
:1000A0000010A5D4E80000E87648170000E40B54DF
:1000B000020000CA9A3B000000E1F50500008096AE
:1000C0009800000040420F000000A08601000000E0
:1000D000102700000000E80300000000640000009A
:1000E00000000A00000000000100000000002C7663
:1000F000D888DC674F0823DFC1DFAE59E1B1B7967E
:10010000E5E3E453C63AE651997696E8E6C28426DA
:10011000EB898C9B62ED407C6FFCEFBC9C9F40F2B6
:10012000BAA56FA5F490055A2AF75C936B6CF96732
:100130006DC11BFCE0E40D47FEF520E6B500D0EDF7
:10014000902E0300943577050080841E080000205F
:100150004E0A000000C80C333333330F986E1283FD
:100160001141EF8D2114893BE65516CFFEE6DB18D1
:10017000D1844B381BF77C1D901DA4BBE424203296
:1001800084725E228100C9F124ECA1E53D2711248F
:100190001FBECFEFD0E4DEBFCDBF11E0A0E0B1E0E5
:1001A000E6E2FCE100E00BBF02C007900D92AC312B
:1001B000B107D9F721E0ACE1B1E001C01D92AF3148
:1001C000B207E1F7B4D50C94110E1ACF00C000C0ED
:1001D00000C000C000C000C00000089539983898E1
:1001E000419840980895399AF1DF1DC00895389AD2
:1001F000EDDF3998EBDF3898E9DF399AE7DF13C094
:100200000895082E399AE2DF802D0DD0882311F051
:1002100002D0F8CF0895389A399AD8DF3898D6DFC7
:100220003998D4CF08950894881F01C0880F59F0D9
:10023000389A18F40000399802C0399A00C0C6DF15
:100240003898C4DFF3CF389A3998C0DF3898309B9C
:10025000FECF8827319981E0B9DF99270895882753
:1002600001C081E071E0389A3998B0DF3898AEDF8C
:10027000309BFECF889431990894771FA0F7389A65
:10028000813011F0399801C0399AA0DF3898309B3D
:10029000FECF9CDF872F9927089595B19F70282F57
:1002A000207F922B95B92898299A0000299832E44A
:1002B0003A95F1F700C025B12F7030E1839FC0015E
:1002C0001124822B85B9299A0000299883EF91E0A7
:1002D0000197F1F700C00000089595B19F70282F95
:1002E000207F922B95B9289A299A0000299832E408
:1002F0003A95F1F700C025B12F7030E1839FC0011E
:100300001124822B85B9299A0000299883EF91E066
:100310000197F1F700C0000008958FEF84B987E8D6
:1003200093E10197F1F700C0000082E0B6DF88E2B8
:10033000B4DF8CE0B2DF86E0B0DF81E0AEDF83EFD8
:1003400091E00197F1F700C000000895CF93DF938B
:10035000EC018881882329F02196BFDF89918111E2
:10036000FCCFDF91CF91089581E097DF83EF91E09B
:100370000197F1F700C0000080E88FCF08952FE7C4
:100380008AE196E0215080409040E1F700C00000F3
:1003900010921E010895CF92DF92EF92FF92CF93B9
:1003A000DF9300D000D01F92CDB7DEB7682F792F32
:1003B000FE01319685E0DF011D928A95E9F71092E2
:1003C0001E015F98579A83ED90E30197F1F700C003
:1003D00000005F9A57982FE107C000C0215021F418
:1003E00084E080931E0183C04F99F7CF80911E0156
:1003F000882341F07CC000C0215029F484E0809320
:100400001E010BC023E34F9BF6CF07C000C0215055
:1004100029F484E080931E016AC023E34F99F6CF4C
:1004200080911E01882309F43DC061C000C02150A5
:1004300031F450931E0145E031C0422F24E24F9B1E
:10044000F5CF20911E01211126C09BE09A95F1F76E
:1004500000C04F9B1BC0E1E0F0E0EC0FFD1FE40F7C
:10046000F11D2081D701C601032E04C0880F991FFA
:10047000AA1FBB1F0A94D2F7822B808307C000C03B
:10048000215029F450931E01242F06C023E34F99D5
:10049000F6CF242F01C0242F31507AF64F5F45301C
:1004A00038F008C040E0C12CD12C7601C39454E050
:1004B00037E0C4CF80911E01811119C099818A81D2
:1004C000980F8B81980F8C81890F9D81891721F05E
:1004D00083E080931E010BC0DE011196E62FF72FFB
:1004E000CE0105962D912193A817B907D9F70F9042
:1004F0000F900F900F900F90DF91CF91FF90EF90A2
:10050000DF90CF900895EF92FF920F931F93CF93B8
:10051000DF9300D000D0CDB7DEB77C018B0119820C
:100520001A821B821C82CE01019635DF80911E014A
:10053000811114C06B8170E080E090E0F5D4F70188
:100540006083718382839383698170E080E090E0AF
:10055000EBD4F80160837183828393830F900F90B3
:100560000F900F90DF91CF911F910F91FF90EF901F
:100570000895CF93DF93C82FD62F880F34DE8D2FA9
:1005800052DE49DE8C2F880F81602DDE68DEC82F99
:1005900042DE8C2FDF91CF910895CF93DF93D62F3A
:1005A000C42F880F20DE8D2F3EDE8C2F3CDE33DE05
:1005B000DF91CF91089540E06BE688E6EEDF87EAB1
:1005C00091E60197F1F700C0000041E06BE688E694
:1005D000E4DF8FE493EC0197F1F700C0000043E003
:1005E0006AE188E6DADF44E069E188E6D6DF6BE1BC
:1005F00088E6BFDF40911D01440F440F440F857E04
:10060000482B6BE188E6C9DF6CE188E6B2DF4091F8
:100610001C01440F440F440F877E482B6CE188E691
:10062000BCDF6DE188E6A5DF807F482F43606DE188
:1006300088E6B3DF42E267E388E6AFDF41E068E3E4
:1006400088E6ABDF87EA91E60197F1F700C000008A
:100650000895CF92DF92EF92FF920F931F93CF9363
:10066000DF93C82F162FE42E6901880FBCDD812F80
:10067000DADDD1DD8C2F880F8160B5DDF12C81E0D2
:10068000E81AF1081E141F0474F4C0E086010C0F70
:10069000111DE7DDF8018083CF5F8C2F90E08E1570
:1006A0009F05A4F301C0C0E0C6018C0F911DEC01B1
:1006B000D6DD8883B0DDDF91CF911F910F91FF9040
:1006C000EF90DF90CF9008952F923F924F925F92DC
:1006D0006F927F928F929F92AF92BF92CF92DF9252
:1006E000EF92FF920F931F93CF93DF93CDB7DEB7B7
:1006F000EF970FB6F894DEBF0FBECDBF9DAB8CABAE
:100700007FAB6EAB40E86BE688E647DF87EA91E6B1
:100710000197F1F700C0000041E06BE688E63DDF9D
:1007200040E06CE688E639DFAFE4B3EC1197F1F70F
:1007300000C0000040E068E388E62FDF40E063E2AD
:1007400088E62BDF40E06BE688E627DF40E064E2E6
:1007500088E623DF40E06AE688E61FDF4CE06AE6D1
:1007600088E61BDFE5EAFEE03197F1F700C0000004
:1007700041E06AE188E611DF40E069E188E60DDFEB
:1007800040E06BE188E609DF40E06CE188E605DFE8
:1007900040E46AE688E601DF48E763E288E6FDDEDA
:1007A0008FE097E20197F1F700C0000040E063E2BC
:1007B00088E6F3DE9E012F5F3F4F42E062E788E666
:1007C00048DF298130E0322F22278A81282BABEAAB
:1007D000BAEA0E942A0C1C01369427943694279476
:1007E000369427942114310409F491C01C8E1D8E77
:1007F0001E8E1F8E18A219A21AA21BA21CA21DA235
:100800001EA21FA2412C512C3201812C912C54018B
:10081000C12CD12C760100E010E09E012F5F3F4FEC
:100820004CE064E788E615DF898190E0982F8827FF
:100830002A81822B092E000CAA0BBB0B480E591ED5
:100840006A1E7B1E8B8190E0982F88272C81822B3B
:10085000092E000CAA0BBB0B880E991EAA1EBB1EEC
:100860008D8190E0982F88272E81822B092E000CF5
:10087000AA0BBB0BC80ED91EEA1EFB1E8F8190E08F
:10088000982F88272885822B092E000CAA0BBB0BDA
:100890002C8D3D8D4E8D5F8D280F391F4A1F5B1F9C
:1008A0002C8F3D8F4E8F5F8F898590E0982F882702
:1008B0002A85822B092E000CAA0BBB0B28A139A17B
:1008C0004AA15BA1280F391F4A1F5B1F28A339A328
:1008D0004AA35BA38B8590E0982F88272C85822BD9
:1008E000092E000CAA0BBB0B2CA13DA14EA15FA1B0
:1008F000280F391F4A1F5B1F2CA33DA34EA35FA3E4
:100900000F5F1F4F2016310609F087CF15C01C8ED0
:100910001D8E1E8E1F8E18A219A21AA21BA21CA227
:100920001DA21EA21FA2412C512C3201812C912C00
:100930005401C12CD12C7601810120E030E008A7C0
:1009400019A72AA73BA7C301B201A901980166D73D
:100950002CA73DA74EA75FA728AF39AF4AAF5BAF23
:10096000C501B40128A539A54AA55BA557D728AB71
:1009700039AB4AAB5BAB2CAF3DAF4EAF5FAFC701FE
:10098000B60128A539A54AA55BA548D769017A0112
:100990006C8D7D8D8E8D9F8D28A539A54AA55BA573
:1009A0003DD749015A0168A179A18AA19BA128A537
:1009B00039A54AA55BA532D729013A016CA17DA1D1
:1009C0008EA19FA128A539A54AA55BA527D72C8F65
:1009D0003D8F4E8F5F8F1C141D041E041F042CF4CA
:1009E00010E4D11AE108F10804C020E4D20EE11CA1
:1009F000F11C88279927DC0188199909AA09BB09E4
:100A00001AF40396A11DB11DB595A79597958795E5
:100A1000B595A79597958795492F5A2F6B2F7727CF
:100A200067FD7A9549838A8388279927DC01841991
:100A30009509A609B7091AF40396A11DB11DB5952C
:100A4000A79597958795B595A795979587959B8336
:100A50008C838C8D9D8DAE8DBF8DB095A09590951E
:100A600081959F4FAF4FBF4F1AF40396A11DB11D43
:100A7000B595A79597958795B595A79597958795DA
:100A80009D838E8363E188E688DD4A8164E188E6A0
:100A900084DD4B8165E188E680DD4C8166E188E696
:100AA0007CDD4D8167E188E678DD4E8168E188E68E
:100AB00074DDC501B4013AD220E030E043E053E4F4
:100AC000CBD1ACA9BDA96D937D938D939C931397C6
:100AD000C301B2012BD220E030E043E053E4BCD1AB
:100AE000ECA9FDA964837583868397836C8D7D8DC6
:100AF0008E8D9F8D1BD220E030E043E053E4ACD1DB
:100B0000ACA9BDA918966D937D938D939C931B976B
:100B10009E012F5F3F4F42E067E788E69ADD4980FC
:100B2000512C542C44248A81482A052C000C660838
:100B300077084D865E866F86788A9E012F5F3F4FCD
:100B400042E06AE788E685DD8980912C982C88242C
:100B50008A81882A092C000CAA08BB08898A9A8AEB
:100B6000AB8ABC8A9E012F5F3F4F42E06DE788E66B
:100B700070DD498150E0542F44278A81482B052E8F
:100B8000000C660B770B4D8B5E8B6F8B788F198EFD
:100B90001A8E1B8EFE013D96DE015996CD0133243F
:100BA0003394019111912191319100FD3C92119664
:100BB000E817F907B1F78CA59DA5AEA5BFA508ADAF
:100BC00019AD2AAD3BAD33231CF40796A11DB11D11
:100BD000689412F8B595A795979587951694D1F7CF
:100BE000481A590A6A0A7B0A88A999A9AAA9BBA91D
:100BF0000CAD1DAD2EAD3FAD33231CF40796A11DEA
:100C0000B11D689412F8B595A79597958795169498
:100C1000D1F7881A990AAA0ABB0AD701C601FF2090
:100C20001CF40796A11DB11D689412F8B595A795FF
:100C3000979587951694D1F78A019B01081B190B8C
:100C40002A0B3B0BD901C801772777FC7A95672DD2
:100C5000562D452D4983298D422A4A829B822A8D11
:100C6000822A8C829D832B8D822B8E8367E788E678
:100C700094DC4A8168E788E690DC4B816AE788E685
:100C80008CDC4C816BE788E688DC4D816DE788E67B
:100C900084DC4E816EE788E680DC6CA57DA58EA5A0
:100CA0009FA544D120E030E040E858E3CBD1AEA985
:100CB000BFA96D937D938D939C93139768A979A990
:100CC0008AA99BA933D120E030E040E858E3BAD1AB
:100CD000EEA9FFA96483758386839783C701B60154
:100CE00025D120E030E040E858E3ACD1AEA9BFA95F
:100CF00018966D937D938D939C931B97EF960FB6EB
:100D0000F894DEBF0FBECDBFDF91CF911F910F9141
:100D1000FF90EF90DF90CF90BF90AF909F908F901B
:100D20007F906F905F904F903F902F900895CF935A
:100D3000DF93CDB7DEB7C054D1090FB6F894DEBF4C
:100D40000FBECDBF19821A821B821C821D821E8299
:100D50001F82188619861A861B861C861D861E868B
:100D60001F86188A198A1A8A1B8A1C8A1D8A1E8A5B
:100D70001F8A188ED2DAF8DA80E091E0E7DA099A71
:100D8000089AFDDA2BDABE01635F7F4FCE01019630
:100D90009BDC11DC1D8E1E8E1F8E18A2198E1A8EE2
:100DA0001B8E1C8E2FE38DE093E0215080409040FD
:100DB000E1F700C000000F2EFBE08F2EF1E09F2E28
:100DC000F02D6E0121E2C20ED11C0F2EF5E1AF2EE7
:100DD000F1E0BF2EF02D7E0181E3E80EF11C60E012
:100DE00088E6C7DB182F1F921F921F9288E68F9309
:100DF0009F928F92DF92CF9288D61F921F93BF92BD
:100E0000AF92FF92EF9281D6109A1198BE01635E65
:100E10007F4FCE01499677DBA7DAC60197DA80ECDF
:100E20003CDAC70193DA11500FB6F894DEBF0FBE5B
:100E3000CDBF1E3F38F087EA91E60197F1F700C079
:100E40000000CDCF9FE32DE083E091502040804013
:100E5000E1F700C00000C3CF0CD0BAC0B2D040F060
:100E6000A9D030F021F45F3F19F09BC05111E4C0CC
:100E70009EC0BFD098F39923C9F35523B1F3951BB6
:100E8000550BBB27AA2762177307840738F09F5FAB
:100E90005F4F220F331F441FAA1FA9F333D00E2E1A
:100EA0003AF0E0E830D091505040E695001CCAF787
:100EB00029D0FE2F27D0660F771F881FBB1F26174C
:100EC00037074807AB07B0E809F0BB0B802DBF011F
:100ED000FF2793585F4F2AF09E3F510568F061C08D
:100EE000ABC05F3FECF3983EDCF386957795679552
:100EF000B795F7959F5FC9F7880F911D96958795D0
:100F000097F90895E1E0660F771F881FBB1F6217EE
:100F100073078407BA0720F0621B730B840BBA0BAC
:100F2000EE1F88F7E0950895E89409C097FB3EF41A
:100F300090958095709561957F4F8F4F9F4F992326
:100F4000A9F0F92F96E9BB279395F69587957795A4
:100F50006795B795F111F8CFFAF4BB0F11F460FF64
:100F60001BC06F5F7F4F8F4F9F4F16C0882311F0BC
:100F700096E911C0772321F09EE8872F762F05C0D0
:100F8000662371F096E8862F70E060E02AF09A956B
:100F9000660F771F881FDAF7880F9695879597F960
:100FA000089597F99F6780E870E060E008959FEFEB
:100FB00080EC089500240A941616170618060906F0
:100FC000089500240A9412161306140605060895BF
:100FD000092E0394000C11F4882352F0BB0F40F447
:100FE000BF2B11F460FF04C06F5F7F4F8F4F9F4F87
:100FF000089557FD9058440F551F59F05F3F71F009
:101000004795880F97FB991F61F09F3F79F087956F
:101010000895121613061406551FF2CF4695F1DFF8
:1010200008C0161617061806991FF1CF8695710588
:10103000610508940895E894BB2766277727CB01BC
:1010400097F908950BD0C4CFB5DF28F0BADF18F0B8
:10105000952309F0A6CFABCF1124EECFCADFA0F3C2
:10106000959FD1F3950F50E0551F629FF001729F3D
:10107000BB27F00DB11D639FAA27F00DB11DAA1F5C
:10108000649F6627B00DA11D661F829F2227B00DA9
:10109000A11D621F739FB00DA11D621F839FA00D34
:1010A000611D221F749F3327A00D611D231F849F84
:1010B000600D211D822F762F6A2F11249F575040DB
:1010C0008AF0E1F088234AF0EE0FFF1FBB1F661F76
:1010D000771F881F91505040A9F79E3F510570F02F
:1010E00060CFAACF5F3FECF3983EDCF3869577950F
:1010F0006795B795F795E7959F5FC1F7FE2B880F2A
:10110000911D9695879597F908952F923F924F924A
:101110005F926F927F928F929F92AF92BF92CF9287
:10112000DF92EF92FF920F931F93CF93DF93CDB790
:10113000DEB760970FB6F894DEBF0FBECDBF7C015F
:101140001B016A01FC0117821682838181FF2AC379
:101150009E012F5F3F4F3901F7019381F10193FD0C
:10116000859193FF81911F01882309F417C385326C
:1011700039F493FD859193FF81911F01853231F4FC
:10118000B70190E086D456016501E6CF10E0512CFE
:10119000912CFFE1F915D8F08B3279F038F48032D8
:1011A00079F08332A1F4F92DF0612EC08D3261F017
:1011B000803369F4292D21602DC0392D3260932EA2
:1011C000892D8460982E2AC0E92DE86015C097FC0F
:1011D0002DC020ED280F2A3088F496FE06C03AE094
:1011E000139F200D1124122F19C08AE0589E200D44
:1011F0001124522EE92DE0629E2E10C08E3231F461
:1012000096FCCCC2F92DF0649F2E08C08C3621F4D8
:10121000292D2068922E02C0883641F4F10193FDF9
:10122000859193FF81911F018111B3CF9BEB980FA3
:10123000933020F4992D9061805E07C09BE9980F50
:10124000933008F059C1992D9F7E96FF16E09F7349
:10125000992E853619F49064992E08C0863621F4AB
:10126000392F3068932E02C01111115097FE07C01C
:101270001C3350F444244394410E27E00BC0183033
:1012800038F027E017E005C027E09CE3492E02C0B4
:10129000212F412C560184E0A80EB11CF60160817B
:1012A000718182819381042DA30105D36C01F981A1
:1012B000FC87F0FF02C0F3FF06C091FC06C092FE5F
:1012C00006C000E205C00DE203C00BE201C000E071
:1012D0008C858C7019F0011143C280C297FE10C03A
:1012E0004C0CFC85F4FF04C08A81813309F44A94D4
:1012F000141474F528E0241578F588E0482E2CC0E5
:1013000096FC2AC0812F90E08C159D059CF03CEF47
:10131000C3163FEFD30674F0892D8068982E0AC05B
:10132000E2E0F0E0EC0FFD1FE10FF11D8081803362
:1013300019F411501111F4CF97FE0EC044244394B8
:10134000410E812F90E0C816D9062CF41C1904C058
:101350004424439401C010E097FE06C01C141D04F1
:1013600034F4C601019605C085E090E002C081E03A
:1013700090E001110196112331F0212F30E02F5F11
:101380003F4F820F931F252D30E08217930714F4EF
:10139000581A01C0512C892D897041F4552031F023
:1013A000B70180E290E075D35A94F8CF002321F082
:1013B000B701802F90E06DD393FC08C0552031F029
:1013C000B70180E390E065D35A94F8CF97FE4AC006
:1013D0004601D7FE02C0812C912CC60188199909BB
:1013E000F301E80FF91FFE87ED87960124193109F3
:1013F000388B2F87012F10E01195019511093FEFD0
:101400008316930621F4B7018EE290E042D3C8140C
:10141000D9044CF08F8598898815990524F4ED85B9
:10142000FE85818101C080E3F1E08F1A91082D854E
:101430003E852F5F3F4F3E872D878016910624F013
:10144000B70190E026D3DBCFC814D90441F49A81C8
:10145000963320F4953319F43C8534FF81E3B701CA
:1014600090E048C08A81813319F09C859F7E9C87DB
:10147000B70190E00ED3111105C094FC16C085E6AB
:1014800090E015C0B7018EE290E003D31E5F82E0CA
:1014900001E0080FF301E80FF11D8081B70190E032
:1014A000F8D2802F0113F4CFE8CF85E490E0B701A4
:1014B000F0D2D7FC06C0C114D10441F4EC85E4FF9E
:1014C00005C0D194C194D1088DE201C08BE2B7016F
:1014D00090E0DFD280E32AE0C216D1042CF08F5FC7
:1014E000FAE0CF1AD108F7CFB70190E0D2D2B70116
:1014F000C601C096CED249C1833631F0833779F028
:10150000833509F052C01FC0560132E0A30EB11C52
:10151000F6018081898301E010E0630111C056016A
:10152000F2E0AF0EB11CF601C080D18096FE03C080
:10153000612F70E002C06FEF7FEFC6019FD28C0178
:10154000F92DFF7713C0560122E0A20EB11CF6015F
:10155000C080D18096FE03C0612F70E002C06FEFA3
:101560007FEFC60180D28C01F92DF0689F2EF3FD2C
:1015700018C0852D90E00817190798F4B70180E28C
:1015800090E087D25A94F5CFF60197FC859197FEAB
:1015900081916F01B70190E07CD251105A940150B3
:1015A00011090115110581F7F0C0843611F0893653
:1015B00059F5560197FE09C024E0A20EB11CF601B0
:1015C00060817181828193810AC0F2E0AF0EB11C0B
:1015D000F60160817181072E000C880B990BF92DA3
:1015E000FF769F2E97FF09C0909580957095619525
:1015F0007F4F8F4F9F4FF0689F2E2AE030E0A3016E
:10160000B2D2C82EC6183EC0092D853721F40F7EF0
:101610002AE030E01DC0097F8F3691F018F488353C
:1016200059F0BCC0803719F0883711F0B7C000619D
:1016300004FF09C0046007C094FE08C0066006C02D
:1016400028E030E005C020E130E002C020E132E0D7
:10165000560107FF09C084E0A80EB11CF6016081A5
:1016600071818281938108C0F2E0AF0EB11CF60156
:101670006081718180E090E0A30175D2C82EC61808
:101680000F77902E96FE0BC0092D0E7FC11650F4D9
:1016900094FE0AC092FC08C0092D0E7E05C0DC2C09
:1016A000092D03C0DC2C01C0D12E04FF0DC0FE01AA
:1016B000EC0DF11D8081803311F4097E09C002FF19
:1016C00006C0D394D39404C0802F867809F0D394B5
:1016D00003FD10C000FF06C01C2DD51478F4150DB5
:1016E0001D190CC0D51450F4B70180E290E0D1D19F
:1016F000D394F8CFD51410F45D1801C0512C04FF19
:101700000FC0B70180E390E0C4D102FF16C001FD15
:1017100003C088E790E002C088E590E0B7010CC004
:10172000802F867851F001FF02C08BE201C080E279
:1017300007FD8DE2B70190E0ACD1C11630F4B701DE
:1017400080E390E0A6D11150F8CFCA94F301EC0DDC
:10175000F11D8081B70190E09CD1C110F6CF15C07A
:10176000F4E0F51550F584E0581A93FE1EC00111FF
:1017700025C02C8523FF27C00CE810E0392D3071DF
:10178000932EF8018491811121C0552009F4FCCCDD
:10179000B70180E290E07DD15A94F7CFF7018681BE
:1017A000978123C08FEF9FEF20C0B70180E290E0C8
:1017B00070D15A945110F9CFDACF512CB701802F44
:1017C00090E067D1D6CF00E910E0D8CF91108052D9
:1017D000B70190E05ED10F5F1F4FD3CF23E02515F7
:1017E00010F483E0C1CF512CC4CF60960FB6F894AB
:1017F000DEBF0FBECDBFDF91CF911F910F91FF9044
:10180000EF90DF90CF90BF90AF909F908F907F90A0
:101810006F905F904F903F902F900895052E97FB0B
:1018200016F400940FD057FD05D023D007FC02D04A
:1018300046F408C050954095309521953F4F4F4F45
:101840005F4F089590958095709561957F4F8F4F6C
:101850009F4F0895A29FB001B39FC001A39F700D39
:10186000811D1124911DB29F700D811D1124911DA8
:101870000895A1E21A2EAA1BBB1BFD010DC0AA1FD1
:10188000BB1FEE1FFF1FA217B307E407F50720F0E9
:10189000A21BB30BE40BF50B661F771F881F991F64
:1018A0001A9469F760957095809590959B01AC01AD
:1018B000BD01CF010895283008F027E03327DA0171
:1018C000990F311D87FD916000966105710539F40E
:1018D00032602E5F3D9330E32A95E1F708959F3FF4
:1018E00030F080387105610509F03C5F3C5F3D9345
:1018F000913008F08068911DDF93CF931F930F9371
:10190000FF92EF92192F987F9695E92F96959695CD
:10191000E90FFF27E251FF4F99273327EE24FF24D9
:10192000A701E70105900894079428F4360FE71EF5
:10193000F81E491F511D660F771F881F991F0694B7
:10194000A1F70590079428F4E70EF81E491F561FCB
:10195000C11D770F881F991F661F0694A1F7059078
:10196000079428F4F80E491F561FC71FD11D880F72
:10197000991F661F771F0694A1F70590079420F41E
:10198000490F561FC71FD81F990F661F771F881F43
:101990000694A9F784911095177041F0D695C795D4
:1019A00057954795F794E7941A95C1F7E4E9F0E065
:1019B00068941590159135916591959105907FE208
:1019C0007395E118F10A430B560BC90BD009C0F708
:1019D000E10CF11E431F561FC91FD01D7EF470334A
:1019E00011F48A95E6CFE894015030F0080F0AF41C
:1019F0000027021708F4202F2395022F7A3328F0AE
:101A000079E37D932A95E9F710C07D932A9589F6AD
:101A1000069497956795379517951794E118F10AED
:101A2000430B560BC90BD00998F023957E91739503
:101A30007A3308F070E37C932013B8F77E917061DD
:101A40007D9330F0839571E37D9370E32A95E1F700
:101A50001124EF90FF900F911F91CF91DF91992763
:101A600087FD90950895FC0105906150704001102C
:101A7000D8F7809590958E0F9F1F0895FC016150B7
:101A8000704001900110D8F7809590958E0F9F1FA0
:101A900008950F931F93CF93DF93FB01238121FDC3
:101AA00003C08FEF9FEF2CC022FF16C046815781E5
:101AB000248135814217530744F4A081B1819D01EF
:101AC0002F5F3F4F318320838C93268137812F5F97
:101AD0003F4F3783268314C08B01EC01FB01008448
:101AE000F185E02D0995892BE1F6D80116968D91A7
:101AF0009C911797019617969C938E931697CE01FB
:101B0000DF91CF911F910F9108950F931F93CF9362
:101B1000DF93CDB7DEB72E970FB6F894DEBF0FBEBA
:101B2000CDBF0D891E8986E08C831A8309838FEFD0
:101B30009FE79E838D83AE01475E5F4F6F89788DEF
:101B4000CE010196E2DAEF81F885E00FF11F1082F5
:101B50002E960FB6F894DEBF0FBECDBFDF91CF91AA
:101B60001F910F910895FA01AA27283051F12031D1
:101B700081F1E8946F936E7F6E5F7F4F8F4F9F4F21
:101B8000AF4FB1E03ED0B4E03CD0670F781F891F63
:101B90009A1FA11D680F791F8A1F911DA11D6A0F31
:101BA000711D811D911DA11D20D009F468943F91E4
:101BB0002AE0269F11243019305D3193DEF6CF01E3
:101BC0000895462F4770405D4193B3E00FD0C9F7A9
:101BD000F6CF462F4F70405D4A3318F0495D31FD16
:101BE0004052419302D0A9F7EACFB4E0A695979569
:101BF000879577956795BA95C9F70097610571053F
:101C000008959B01AC010A2E069457954795379588
:101C10002795BA95C9F7620F731F841F951FA01DE2
:061C20000895F894FFCFC7
:101C2600426F6F74696E672E2E2E00307825303223
:0C1C360058203A3A20307825303258000F
:00000001FF
